:020000040000fa
:080000000002040000000000f2
:020000040000fa
:100008009a0200009a0200009a0200009a02000078
:100018009a0200009a0200009a0200009a02000068
:100028009a0200009a0200009a020000182c0000b0
:100038009a0200009a0200009a0200009a02000048
:10004800ae1000009a0200009a0200000a1d00008b
:10005800b81c00009a0200009a0200009a020000f0
:100068009a0200009a0200009a020000841a000016
:100078009a0200009a0200009a0200009a02000008
:100088009a0200009a0200009a0200009a020000f8
:100098009a0200009a0200009a0200009a020000e8
:1000a8009a0200009a0200009a0200009a020000d8
:1000b8009a0200009a0200009a0200009a020000c8
:1000c8009a0200009a0200009a0200009a020000b8
:1000d8009a0200009a0200009a0200009a020000a8
:1000e8009a0200009a0200009a0200009a02000098
:1000f8009a0200009a0200009a0200009a02000088
:100108009a0200009a0200009a0200009a02000077
:100118009a0200009a0200009a0200009a02000067
:100128009a0200009a0200009a0200009a02000057
:100138009a0200009a0200009a0200009a02000047
:100148009a0200009a0200009a0200009a02000037
:100158009a0200009a0200009a0200009a02000027
:100168009a0200009a0200009a0200009a02000017
:100178009a0200009a0200009a0200009a02000007
:100188009a0200009a0200009a0200009a020000f7
:100198009a0200009a0200009a0200009a020000e7
:1001a8009a0200009a0200009a0200009a020000d7
:1001b8009a0200009a0200009a0200009a020000c7
:1001c8009a0200009a0200009a0200009a020000b7
:1001d8009a0200009a0200009a0200009a020000a7
:1001e8009a0200009a0200009a0200009a02000097
:0801f8009a0200009a020000c7
:020000040000fa
:100208009a0200009a0200009a0200009a02000076
:100218009a0200009a0200009a0200009a02000066
:100228009a0200009a0200009a020000182c0000ae
:100238009a0200009a0200009a0200009a02000046
:10024800ae1000009a0200009a0200000a1d000089
:10025800b81c00009a0200009a0200009a020000ee
:100268009a0200009a0200009a020000841a000014
:100278009a0200009a0200009a0200009a02000006
:100288009a0200009a0200009a0200009a020000f6
:100298009a0200009a0200009a0200009a020000e6
:1002a8009a0200009a0200009a0200009a020000d6
:1002b8009a0200009a0200009a0200009a020000c6
:1002c8009a0200009a0200009a0200009a020000b6
:1002d8009a0200009a0200009a0200009a020000a6
:1002e8009a0200009a0200009a0200009a02000096
:1002f8009a0200009a0200009a0200009a02000086
:100308009a0200009a0200009a0200009a02000075
:100318009a0200009a0200009a0200009a02000065
:100328009a0200009a0200009a0200009a02000055
:100338009a0200009a0200009a0200009a02000045
:100348009a0200009a0200009a0200009a02000035
:100358009a0200009a0200009a0200009a02000025
:100368009a0200009a0200009a0200009a02000015
:100378009a0200009a0200009a0200009a02000005
:100388009a0200009a0200009a0200009a020000f5
:100398009a0200009a0200009a0200009a020000e5
:1003a8009a0200009a0200009a0200009a020000d5
:1003b8009a0200009a0200009a0200009a020000c5
:1003c8009a0200009a0200009a0200009a020000b5
:1003d8009a0200009a0200009a0200009a020000a5
:1003e8009a0200009a0200009a0200009a02000095
:0803f8009a0200009a020000c5
:020000040000fa
:100400004fbc20000eff27000e01880000000000f6
:10041000000020000000e000020032000001200087
:10042000200288000c00070000c322000100200009
:1004300011000700000020000000e0000200320070
:100440000000020000000000f42c02000000000088
:100450000040da000000fe004440a900c003200074
:100460000000e0000300320000002000a00188002e
:100470004440a80000000600910188008000780038
:100480000000eb0015003700e280400032a0b4000d
:100490009101ba00e280400032a0b4009102ba009b
:1004a000e280400032a0b4000002eb00472bde00e7
:1004b000f507b200602ce10004003a000059eb009f
:1004c0008301e900fdff3e00040037006128e100e0
:1004d000010032000082eb00040007001101ba00a5
:1004e0000200e000e8ff3a00000006003159ba00bf
:1004f0008301e9000c0032002159ba008301e900b0
:10050000080032000400e00003003a00e2804000ee
:1005100032a0b400f5ff370011d9ba008301e90019
:10052000faff3a008100e800e180400032a0b40008
:10053000000006000040da000000fe0003f0a20008
:10054000889fbe008a9fbe008c1f78009101070023
:10055000980133006450e1004f0032006420e10054
:100560005200320003826c0007003b000905d000f6
:100570000306d000820f54000c065d000200390013
:100580000200320089017800030678008582550058
:1005900004003d000003fd008103fd008502ea0028
:1005a0008b854200840f720002003b006000100047
:1005b000e08018006011b8000005eb007a28e10027
:1005c0000a00390006007800c75ddd00f707b200b9
:1005d000878075002d003700828171000a01780044
:1005e000610560008180d1000080d3008502e900b0
:1005f000f9ff3b00060440008784480002003b00ee
:1006000060041400e0841c000988a3000700320085
:100610008a81710082817100610164008904d100c6
:100620000884d3008b05e800170037000978a30081
:1006300013003a000b00e000130034008b05e900c2
:100640000804440089844c000a4474000978a3001b
:100650000d003a000b00e000070034008b05e900b4
:100660000804440089844c0001003a000b0020007b
:100670000978a300f7ff32000001eb000200370009
:10068000828171000a017800070107000cf0a700c1
:1006900001f0a000500137006420e10002003a00a0
:1006a000838f6c00500133000801be000200be00c1
:1006b00049013700889fbe008a9fbe008c9fbe0004
:1006c0000004be001e0107000800be008906780075
:1006d0006420e10008003900040032000160a0003d
:1006e00012022000b24288005300370091fc230020
:1006f000b0fd20004e0037000006eb0009f0a1001d
:1007000003f82300020020000800be00a10007003b
:100710000600340001f82300000020000801be009c
:100720004b0007000004be002c0020000800be00a3
:1007300093e82300320a23009600070012003400d9
:100740000801be00d1fd2300703d2b007cff070097
:100750000005be00b3f32300f27a26000800be00b5
:100760002401070003f823000200200073ff0700a4
:100770000801be0072ff07000a01be003400070036
:100780000004be000c06e8000800be0001f0a10055
:1007900002002000039823007e0007000800be002e
:1007a000160035000801be00120107000005be005a
:1007b00032cd2c0043fb230061ff0700809fbe0069
:1007c0001269280003d52b000a00be0009010700aa
:1007d000620f210013ef2b0059ff07000a01be0032
:1007e000040107004f01be00190007000801be0008
:1007f000000107000801be0051ff07000c00e000e7
:100800000b0032000c10a70001f0a200b2fd200086
:1008100093fc23006260e1000400320022a9200062
:1008200063f023000c10a70063f8230044ff0700c7
:100830000df0a70001f0a2004f06be004f05be005c
:100840004f04be00000006000081eb001d013700d0
:10085000889fbe008a9fbe008c1f7800cd000700d5
:10086000d400330003866c006450e1002e00320097
:100870006420e100330032006150e1002f003200bb
:100880006120e1003100320085855500eb07b000a2
:100890000900200008042000050037000804440077
:1008a00089844c000a0031000603430087834b0013
:1008b0000001530081815b00f8ff33000203be009a
:1008c0000800a0000804440089844c00f6ff3900a9
:1008d000c639dd00830173000100320013002000df
:1008e0008904d1000884d3000998a30005003200d0
:1008f0000800a7000300a0008904d1000884d300e9
:100900008b05e8008904d1000884d3000001eb00c6
:100910000281d2006400070001f0a1000cf0a700e2
:1009200001f0a000ac0037006420e100ae0032000e
:100930000801be000200be00f7ff37006120e100a1
:10094000a90032006000b800f3ff3700000020006b
:1009500001f82700f0ff3700839f68000100e000e6
:1009600002003d0060001000e08018000300e0007d
:1009700002003d0060011100e0811900ce01070076
:100980004f00e00002003b0060001000e080180013
:100990000000060014002000d7013700f4ff2f00ec
:1009a000d50137000001be00650007000470a700f4
:1009b00003f0a1006509b100160032000d003500fa
:1009c0006828e10006003500f0ff2f00f1ff270046
:1009d0000300e00013003b000100280000000500b8
:1009e00000004000818048008502e900fcff3a00d9
:1009f00008003700f88f420002003c008000eb0046
:100a0000000005008100d1000080d3008502e800cd
:100a1000fcff3a000300e00002003b006000100011
:100a2000e0801800000006000001be00440007003e
:100a30000470a70003f0a10003f8a30013003a001c
:100a40006509b10010003200090035006928e10095
:100a500002003500010028000000050000004000f1
:100a6000818048008502e900fcff3a000000060092
:100a7000f88f4200050035008100d1000080d300ce
:100a80008502e800fcff3a00000006008000eb0051
:100a9000000005004f89de0082017800b1013700b7
:100aa0006011b800bf01370081002000618055004f
:100ab0000b003d000b00200061fe2f000100e10053
:100ac0001d00340082817100610164008904d1003d
:100ad0000884d3000000e800faff3a00710020000b
:100ae0006100640003007000020060000900320031
:100af00061044400e0844c000988a5000500320030
:100b00008b05e8006808e10002003a008904d10082
:100b10000884d300f20f20000258e10005003d00d8
:100b2000c75ddd00f907b200898075000800780014
:100b3000000006000bf827008b007800000005007d
:100b4000c70ade00f107b200f50fb200080032005c
:100b5000e1cf4200020032000170a0002400050035
:100b6000810f7000010032000408050044000500f8
:100b7000810f700002003a00140005008502e900b0
:100b80000000400081c04800fcff3b000170a00055
:100b9000240005000004be00e9ff07000003be00ba
:100ba0000405be000200be00e5ff0700844f75008b
:100bb000000006000200be006450e100050036009f
:100bc0006420e100020036000968a30001003a0039
:100bd0000800be000160a0004f0678004f05be006f
:100be0004f04be0000000600f0ff2f00f1ff2700b9
:100bf000f9ff3700889fbe008a9fbe008c1f7800d7
:100c0000e4ff0700ebff330003866c006450e10053
:100c1000240032006420e100270032006150e1002e
:100c2000220032006120e100210032008b85420069
:100c3000eb07b1000134b800003ab80008044200e4
:100c400089844a00013ab8000030b800888040002a
:100c500009014a0004003300000040008180480080
:100c6000020149008b05e900c909dd00830170001c
:100c70000100320013002000c814de004814dd001b
:100c80004709de001200b200c808de0008847000c8
:100c900085ff070001f0a1000cf0a70001f0a00003
:100ca000cdff37006120e100cfff32000801be0018
:100cb0000200be00f7ff37006150e100fcff3a0080
:100cc000c9ff3700889fbe008a9fbe008c9fbe0070
:100cd000820578000004be0099ff07000800be00ee
:100ce0006420e1000700390002003a00f1ff27000c
:100cf000f0ff2f000160a00012022000b242880025
:100d0000550037006120e10003003a000b00a70006
:100d100001f823005000370001f0a100020021007b
:100d2000936424001bff07000800be000400350088
:100d3000b2fd2000930c2400490107000004be000e
:100d40000005eb000b00a6004f0dde0001f0a10036
:100d50000004be0032982f0023ea2300a5ff0700fd
:100d60000001eb0003f023000b00a70003f82300b1
:100d7000f3fd07000bff07000000a7000a00a20018
:100d800044ff07000b00e0000300320002002000d7
:100d900003f02300e9fd070001f0a2000006be00f9
:100da000020020009304240092ff07000801be0007
:100db000e3fd0700809fbe000c00be0022a22a00b7
:100dc000d3a723008bff07004f01be00dcfd070007
:100dd0000004be0001f0a1000200200003982300df
:100de000ecfe07000800be00190035000001be003f
:100df00080ff07000006be00b2c52900e3622300a1
:100e00007cff070022222b00f3942b00ccfd07006f
:100e10000c01be0077ff0700e273280083c02300a7
:100e2000c7fd07000c01be0072ff070042aa2a009e
:100e3000a3e22b00c2fd07000c01be006dff0700fe
:100e40000801be006bff07000801be00bcfd0700e3
:100e50000a00a70001f0a2004f06be004f05be0029
:100e60004f04be00000006000001eb0095ff3700b4
:100e7000889fbe008a9fbe008c1f78000004be00c1
:100e80002fff07000478a30026003a006120e1004c
:100e90002500320009f8a30025003a006420e10093
:100ea00021003200f507b1000508a300020032005e
:100eb00000004000818048006044b800031020001a
:100ec0000200200000004000818048000805440026
:100ed00089854c000a0541008b8549000a055000b0
:100ee0008b855800030033000a00be000204740022
:100ef000838474008301d1000281d300830f7100c9
:100f0000f0ff3a008904d1000884d3006001490051
:100f100082017800c1adde00fb07b000e2fe0700f1
:100f20002dff37000960a0000800be002aff37002f
:100f300012022000b2428800f0ff2f00f1ff2700cc
:100f400025ff3700889fbe008a9fbe000004be00b8
:100f5000fbfe07000800be006420e1000700390026
:100f600002003a00f1ff2700f0ff2f000160a0000f
:100f700012022000b24288004c00370001f0a100ac
:100f800002802000935c240082fe07000800be005f
:100f900004003500b2fd200093042400b0000700d7
:100fa0000004be0032982f0023f2230011ff070037
:100fb0000200200003f0230001f0a70003f0a000ce
:100fc0005ffd070077fe0700801f7800b1fe070075
:100fd00001f0a2000005be000200200093fc2300e7
:100fe00004ff07000801be0055fd0700809fbe00fa
:100ff0000a00be0022a22a00d39f2300fdfe0700a4
:101000004f01be004efd07000004be0001f0a1002c
:10101000020020000398230060fe070003003d004b
:101020000000200001f82300180037000800be006f
:101030000001be00effe07000005be00823b23005a
:1010400043dc2b00ebfe07000801be00e9fe0700b1
:101050000801be003afd07000004be000a00be0001
:1010600052372300f3c12300e2fe0700f27a2b007f
:10107000b3ed2b0032fd07000a01be00ddfe0700c4
:101080000200200003f823002dfd07004f00a600fa
:10109000030037000801be0003f0a2000200370081
:1010a0000001be000800be00e9fd07004f05be00bc
:1010b0004f04be00000006006022b80006022000b7
:1010c0000000d0008180d2000482d2008582d2004c
:1010d0000000a0000202520083825a000300310087
:1010e0000202420083824a000000a1000603e900d8
:1010f000f3ff3a0000000600889fbe008a9fbe00f2
:10110000841f7800a3fe07004f0078001100330011
:10111000f0ff2f00838f6c0006003b000405650084
:101120000a00a7000800370009f0a6001000200000
:1011300008003700820f5400838f5c0003003900e1
:101140001000200001003e000000200009f0a70070
:101150000000ea004f05be004f04be000000e000a2
:1011600000000600881f7800030478000300e000f8
:1011700007003d0060001000e080180060011900c9
:10118000e081190002003b0001f02d000300370050
:101190000400070008f0a70001f0a0004f04780049
:1011a00000000600889fbe008a9fbe00008270007b
:1011b0000402710004827100260032000004be00a7
:1011c0000200be006011b8006b09200095022000eb
:1011d0000182cf000a0039000541b1000082cf0032
:1011e000070039000541b1000982cf000400390031
:1011f0000541b1000882cf00010039000541b1006e
:1012000005425200120032000a003b008281710048
:10121000610164008100d1000080d3008984d30083
:101220000884d3008b05e8000442e800f7ff3a0089
:10123000070037000804440089844c00000048007f
:10124000818048008b05e9000442e900f9ff3a007b
:1012500015fe07004f05be004f04be00000006004b
:101260000400200000003700889fbe008a9fbe0057
:101270008c1f78004f26dd0046fe07004dfe330030
:101280006120e100430032006250e10041003e0075
:101290003e0039006420e1003c0032000582550028
:1012a0000f003b000402e80038003a00800f5300b2
:1012b000818f5b00350034000800be0003f0a10000
:1012c00001f0a60003f0a0000cf0a7009cfc0700b2
:1012d00041fe37000603430087834b000c4646005f
:1012e0000005530081855b00020033000a03be0045
:1012f0000c00a0000402e900f6ff3b008505780021
:101300000602430087824b0004003a006000b800e8
:1013100009f0a70001f0a0002ffe370000025200e4
:1013200081825a000704e0000400330006034300f2
:1013300087834b008b05e900faff37000905780029
:101340000604be000203be006011b800d6fd07000f
:10135000e00f5200e08f5a000700350002003c0009
:101360000c08a300040032000601be0003f0a00038
:101370000cf0a70072fc07000a85680001f0a100cc
:101380000af0a70001f0a00013fe37000800be001d
:1013900011fe3700100220000cf0a600b0428800b9
:1013a00011fe37008001780002003700b159780043
:1013b0000201e9000200e000fcff3a000000060024
:020000040000fa
:1013c000eeff000046000000d7ff000046000000ce
:1013d000c0ff000045000000a9ff0000440000001d
:1013e00091ff000043000000d8ff0000190000003a
:1013f000bfff00001b000000a6ff00001d00000052
:101400008dff00001f00000074ff0000210000009d
:1014100001000000010000000200000002000000c6
:1014200003000000030000000400000004000000ae
:081430000500000005000000aa
:020000040000fa
:101438000600fa00200798000000eb00000f780073
:10144800a140800011079800914080001e00900084
:10145800808f50001600320010002000000f780026
:101468002e0190001e0090006600b90080007800f0
:1014780000a9200000804000301978002011780071
:10148800a0009000210198001e0090000000e800d4
:10149800100798001e009000ff0f50000200340053
:1014a8000000eb00100798009e009000a140880003
:1014b8001e0078000080fa00000006000600fa000e
:1014c800204798002107980090408000000fe8000e
:1014d8001e007800ff0f5000020034000000eb00ef
:1014e800000f7800a04080009e007800808f500098
:1014f8001a003200b0408000e10f500004003a00aa
:10150800ae40900000c8b30000c0700020479800ab
:101518001628ef00904080006600b900800078002f
:1015280000a9200000804000ae40900001487800eb
:10153800924080002e0090001000be006611b90095
:101548008201780022a92000028141000089be00a2
:101558009e007800914088000200370010002000ab
:10156800b04088000080fa00000006000200fa007f
:10157800000f78009e007800414088000080fa0043
:10158800000006000000fa00304080000010a000b3
:10159800304088000080fa00000006000000fa00d1
:1015a80030408000620060000080fa000000060001
:1015b8000000fa00605380000000e00005003a00d7
:1015c8003040800061006000004078000004e000c6
:1015d8000200320010002000010037000000eb007c
:1015e8000080fa00000006000200fa00000f7800f0
:1015f8001e0078004400dd008080e800c0a42000c0
:1016080000804000100078000080fa00000006000a
:101618000400fa00008fbe006000b8007053880014
:1016280081538800a0802000b00090002000900026
:101638000001be001e00be0083fc0700d7fc0700a7
:1016480090538800a1538800605380000010a000c8
:10165800605388000080fa00000006000400fa00c9
:10166800008fbe00a08020001000be000001be0058
:101678001e00be0074fc0700c8fc070070538800f9
:10168800815388006000b80090538800a1538800f7
:10169800605380000000a000605388000080fa00ba
:1016a800000006001a00fa00889fbe008a9fbe004c
:1016b800100f9800210f9800320f9800430f9800e0
:1016c800f0538000015480001cfe0700f7fb070060
:1016d800008fbe00f05380000154800058fc0700c2
:1016e80018c0b3006011b800a8fc07000000e000b3
:1016f800010035000044eb000804e0000600320059
:1017080000408000114080000001be001e00be00a5
:1017180089fb0700008fbe00d0538000e153800092
:101728000001be003e089000ce08900081fb070033
:101738000004be00b0538000c15380000001be0009
:101748001e089000ae0890007afb07000001be005a
:101758000800be003cfc0700d4fb070020079800e7
:1017680031079800b0538000c15380000001be00cb
:101778001e089000ae0890006efb070018c0b3006a
:101788006011b80081fc07000000e000010035008e
:101798000044eb000804e00008003200004080002c
:1017a800114080000001be002e009000be00900095
:1017b80061fb070020079800310798001e01be0052
:1017c8002e009000be0090005afb070040079800ca
:1017d80051079800004080001140800018c0b300f5
:1017e8000001be004e009000de00900069fc07007a
:1017f8000000e00001003c000044eb000804e000a9
:101808000a00320000408000114080000001be0044
:1018180049fb07000001be004e009000de0090006a
:1018280044fb0700400798005107980000408000db
:101838001140800001f0a20018c0b3004e019000d2
:10184800de01900053fc07000000e00001003c00ae
:101858000044eb000804e0000a0032000040800069
:10186800114080000001be0033fb07000001be00ec
:101878004e009000de0090002ffb07004007980004
:1018880051079800100020006007980018c0b300a6
:1018980032332300330124004e009000de00900014
:1018a8003cfc07000000e00001003c000044eb00a5
:1018b8000804e0000a003200004080001140800067
:1018c8000001be004e009000de00900019fb0700ea
:1018d80040079800510798000080eb0060079800c7
:1018e80018c0b3003233230033012c004e0090009f
:1018f800de00900025fc07000000e0000100350034
:101908000044eb000804e0000a00320000408000b8
:10191800114080000001be004e009000de009000e3
:1019280005fb070040079800510798000080eb006e
:1019380060079800a08020001000be000001be00d3
:101948004e009000de009000bffb07007007980073
:10195800010f98007e0090008e0890000ffc070091
:101968007053880081538800b0538000c1538000b1
:101978001e099000ae099000eefa07000004be00b0
:10198800b0538000c15380001e099000ae0990003a
:10199800e8fa07000001be000800be0093fc07003b
:1019a8000004be00d0538000e15380003e0990003f
:1019b800ce099000dffa07000005be00d053800072
:1019c800e15380003e099000ce099000d9fa070043
:1019d8000001be000a00be0084fc07000001be0032
:1019e8000800be00d4fa07001ffd07007007980022
:1019f800010f9800a0802000b00090002000900007
:101a08000001be007e0090008e0890008efb07004b
:101a180070079800010f98006e009000cf80de00dc
:101a28001afc07007e0190008e0990006ffc0700e9
:101a3800dafb070090538800a1538800300020008b
:101a4800605388004f05be004f04be000080fa00b6
:101a5800000006000600fa00200798000080eb004e
:101a6800000f78000000eb00100798001e003700f8
:101a78001e0090008000400080b6200000804000da
:101a8800900078002e009000808f500010003200e7
:101a98001e0090008000400000b920000080400037
:101aa800900078002e009000808f500008003200cf
:101ab8001e00900080004000c0b720000080400059
:101ac800900078002e009000808f500003003a00ac
:101ad8009e009000010f7800060037001e0090005d
:101ae8000000e800100798001e009000e90f500061
:101af800dfff34001e0078000080fa0000000600b6
:101b08000200fa00000f780010002000805a8800b8
:101b18009e007800915a88000000eb00c05a8800a7
:101b28000000eb00d05a8800304080000020a00060
:101b3800304088000080fa00000006000400fa0027
:101b48000080eb00000f7800805a80000000e00061
:101b580014003a00c05a8000beff0700000f78004a
:101b68001e007800e10f40000e003200905a8000fd
:101b7800e20f50000b003a00d05a8000b5ff070072
:101b8800100798001e009000e10f40000500320089
:101b98001e0078006a00b900800078001e009000de
:101ba800008f40001e0078000080fa000000060048
:101bb8000a00fa00200798003207980043079800a7
:101bc800805a8000e30f50001a003200e30f5000e3
:101bd80005003c00e10f500008003200e20f500001
:101be80022003200ae003700e40f500044003200fb
:101bf800e60f5000aa003c00680037002e00900055
:101c0800e10f50009d003a003e019000ce01900087
:101c1800e25a8800f35a880010002000a05a880071
:101c280030002000b05a880020002000805a880028
:101c38009b0037002e009000e10f500091003a0001
:101c48003e019000ce019000e25a8800f35a8800c5
:101c580010002000a05a880040002000b05a8800d8
:101c680040002000805a88008d003700a15a80006b
:101c78002e009000808f500021003200ae019000ad
:101c8800a35a8800b05a80000000e900b05a8800c2
:101c9800b05a80000000e00019003a00e05a8000c5
:101ca800f15a80003e019000ce01900000005100e2
:101cb80081805900320020000300200024fb070027
:101cc800005b8800115b8800005b8000115b80006e
:101cd8008181d1000081d3003e009000ce009000a9
:101ce8000200400083804800205b8800315b880048
:101cf80080002000b05a880050002000805a8800d8
:101d0800a15a80002e009000808f50005f003200a2
:101d1800ae009000a15a8800b05a80000000e90087
:101d2800b05a8800b05a80000000e00059003a001c
:101d3800e05a8000f15a80003e019000ce019000e8
:101d480000005100818059004e09dd004200de008c
:101d580000007100c288de00005b8800115b88000b
:101d6800005b8000115b80008181d1000081d3007d
:101d78003e009000ce0090000200400083804800a2
:101d8800205b8800315b880080002000b05a880002
:101d980060002000805a880041003700225b8000e4
:101da800335b80003e009000ce009000800f510011
:101db800818f590039003c00225b8000335b800032
:101dc800005b8000115b80000200400083804800b7
:101dd800205b8800315b8800b05a80000000e90071
:101de800b05a8800b05a80000000e00010003a00a5
:101df800905a8000e10f500003003200805a8000a2
:101e0800e60f500007003a000000eb00805a8800f7
:101e180031408000b0ff2f00008060003040880013
:101e28001f00370030002000805a88001c0037004f
:101e3800805a8000e50f500008003a00c05a800020
:101e480000004000800078002e00900061006000d3
:101e580000804000c05a880011003700d05a800026
:101e680000004000800078002e00900061006000b3
:101e780000804000d05a88000900370000000000a8
:101e880007003700000000000500370000000000d0
:101e980003003700000000000100370000000000c8
:101ea8003e009000ce009000c802dd000400200033
:101eb800225b8000335b8000f00f200001002000cf
:101ec800020378000301780080017800010078009f
:101ed80003036300000061008000eb00c000dd0028
:101ee800000020000001be006130b8000001710050
:101ef80081817100c010dd00000020000401400055
:101f080085814800b05a80004c00dd00cf80de009b
:101f18000202400083824800025b8000135b80005d
:101f2800f00f200001002000020378000301780070
:101f3800800178000100780003036300000061005d
:101f48008000eb00c000dd00000020000001be00a2
:101f58006130b80000017100818171004418dd0012
:101f6800cc10de00810070004410dd000401400048
:101f780085814800805a80006700600000004000aa
:101f8800cf80de0002024000838248002e009000cd
:101f98006101b90010002000010020000203780050
:101fa80003017800800178000100780003036300d2
:101fb800000061008000eb00c000dd000000200090
:101fc8000001be006130b80000017100818171001c
:101fd8000400410085804900008fbe004140800018
:101fe80000022000008060000000e0000f003200c6
:101ff800e2408000f34080001e00be00800f5100c8
:10200800818f59000900320069fd07000000e000d7
:10201800060032008e00780050c0b30027fd07008c
:102028001e00be00e0408800f14088000080fa00f1
:10203800000006000000fa00705480000080fa00da
:10204800000006000000fa000000eb00a00c0700ea
:10205800cf80de0050548800615488000000eb00f7
:10206800705488008000eb003000200068040700ee
:102078003000200014040700304080000030a00029
:10208800304088000080fa00000006000000fa00d6
:102098003140800070ff2f000080600030408800d1
:1020a8008000eb00300020005904070030002000b9
:1020b8002e0407000080fa00000006000000fa0065
:1020c80050548000615480000001be00d205b00069
:1020d8000380b000f03f20000100280002027800d1
:1020e8000301780080017800010078000302620093
:1020f800000061006101b800c011dd00020020008d
:102108000200be006121b8000200700083807000e8
:10211800e00f5000e08f580008003d0061005000bb
:10212800e080580002c02f00f3ff2f00020070006b
:102138008380700061004000e080480050548800af
:102148006154880010002000705488000080fa0054
:10215800000006003600f800809fbe00829fbe0087
:10216800849fbe00869fbe00889fbe008a9fbe00d7
:102178002e00fa000000eb00300798001b00370023
:102188003e009000c400dd00c0a420000080400094
:1021980010007800e10f40000a003a003e0090006d
:1021a8001b05070060001000e08018003e01900049
:1021b800c411dd0002a52000028141000089be0093
:1021c800070037003e009000110507003e0190000f
:1021d800c411dd0002a52000028141000089be0073
:1021e8003e0090000000e800300798003e00900094
:1021f800e10f5000e2ff34003040800061006000d1
:10220800004078000004e000e10032000000eb002c
:1022180030079800160037003e0090004400dd00ab
:10222800ec004000c0a42000008040001001be0067
:102238003e0090004400dd00e4004000c0a42000ff
:10224800008040001000be0000005100818059004d
:102258003e0190004211dd00020147007a01410071
:102268000089be003e0090000000e800300798009a
:102278003e009000e10f5000e7ff34005e08900038
:10228800ee089000000078000001780002f0a70036
:102298000201ea007e0890008e109000000078008d
:1022a80000f0a7000000ea00000041000080d10013
:1022b800cf80de0060079800710798005e089000e4
:1022c800ee089000000078000001780002f0a700f6
:1022d8000201ea007e0890008e109000000078004d
:1022e80000f0a7000000ea00000051000080d100c3
:1022f800cf80de00000f9800110f9800304080005a
:10230800640060000000e0001b003200fe00900046
:10231800d00220000088b900000178006e0090000b
:102328006000b9000000780000014100ee00900054
:10233800d00220000008b8000101410082007800a6
:102348004251200003002000000041008180490024
:102358008257200003002000820f5000838f58000e
:102368000200340080572000010020001017980058
:10237800211798001a003700fe009000d0022000b4
:102388000088b900000178006e0090006000b90074
:102398000000780000014100ee009000d00220000b
:1023a8000008b80001014100820078004251200075
:1023b800030020000000410081804900825720006e
:1023c80003002000820f5000838f58000200340061
:1023d800805720000100200010179800211798004e
:1023e8001e109000ae10900030179800411798000a
:1023f8000e0890009e089000e00f5000e08f5800f3
:1024080014003d001e129000ae1290009e0890002d
:10241800d00220000088b900000178000e08900062
:102428006000b90000007800000141008e089000ab
:10243800d00220000008b8000101410082007800a5
:102448000400400085804800101798002117980064
:10245800140037003e129000ce1290009e089000a3
:1024680030fd2f000088b900000178008e08900028
:102478000080eb000088b9000000780000014100ee
:102488008e08900030fd2f000008b80001014100bf
:1024980082007800040040008580480030179800ca
:1024a800411798000000eb0030079800350037000e
:1024b8003e0090004200dd00fa0047000080400026
:1024c8001000be00e00f5000e08f58000d003d00e6
:1024d8003e0090004200dd00210220008e80400076
:1024e800008040001000be0060001000e08018006e
:1024f8003e0190004211dd00020147002202b000b7
:102508000089be003e009000c400dd00c0a4200089
:102518000080400010007800e10f40000c003a00f5
:102528003e0090004200dd00210220008e80400025
:10253800008040001000be00000078000000ea00a3
:10254800800078003e009000310307000a00370041
:102558003e0090004200dd00210220008e804000f5
:10256800008040001000be00000078008000780065
:102578003e009000260307003e0090000000e8009f
:10258800300798003e009000e10f5000c8ff34006b
:1025980030408000640060000000e0000e0032005f
:1025a8000000eb001a0c0700200f980082528000f0
:1025b80093528000005380001153800002004000b5
:1025c800838048008180d1000080d3000001be00d4
:1025d8002e08900076fd07003040800068006000fb
:1025e8000000e0005a00320058548000695480000e
:1025f8000000eb00360b0700cf80de00001f540000
:1026080001975c0000e02f00f1ff2f001e01be00c3
:10261800800f5100818f590004003d0000402000c8
:10262800010020001e0f40005e9748000020200097
:10263800010020001e01be00800f5100818f59004b
:102648000400340000c02f00f1ff2f001e0f4000cf
:102658005e9748001e007800e90f4000050035002d
:102668001e007800e90f500002003c000000eb005b
:10267800705488001e00be00e00f5000e08f580024
:10268800180034001e0090006500b90000017800b1
:102698001e0078006000b9000000780000014100c9
:1026a8009e007800500020000008b8000101410099
:1026b800820078000019b0000180b0008257200025
:1026c80003002000820f5000838f5800020034005e
:1026d800805720000100200040079800510798000b
:1026e800170037001e0090006500b900000178004f
:1026f8001e0078006000b900000078000001410069
:102708009e007800500020000008b8000101410038
:10271800820078000019b1000180b10082a82f0062
:10272800f3ff2f00820f5000838f580002003d00f6
:1027380080a82f00f1ff2f0040079800510798004c
:102748004e0090008000780030002000b0020700a2
:10275800c04080000000e800c0408800c040800001
:10276800ea0f50008f003a001828ef000000eb0035
:1027780030079800240037003e0090004400dd0038
:10278800e4004000c0a42000008040001000be000b
:10279800000178003e00900063004000c200dd00a8
:1027a80060a72000008040001000be0000007800f4
:1027b80000005100800078003e00900000004000ba
:1027c80000004700a002b000010878003e00900019
:1027d8004400dd00e4004000c0a420000080400068
:1027e8001000be003e01900063014100c211dd00ef
:1027f80062a72000028141000089be003e009000cf
:102808000000e800300798003e009000e10f5000fb
:10281800d9ff340030408000620060000000e00012
:102828001200320031408000d0ff2f00008060008d
:1028380030408800004080001140800002002000e5
:102848000300240000f80700f053880001548800b2
:102858006000b800b0538800c15388006000b80019
:10286800d0538800e15388003e003700a080200044
:1028780020049000b0049000de1090006e109000cc
:1028880000804000cf80de0080f807000001be0015
:102898000800be00d5f8070002002000030024004d
:1028a800e9f70700300f9800410f9800b8538000ef
:1028b800c9538000f053800001548000e0f70700fe
:1028c8003e099000ce099000c8f807000001be003c
:1028d8000800be0018f70700b0538800c1538800ed
:1028e800d8538000e9538000f053800001548000e1
:1028f8005bf907003e099000ce099000bbf807007d
:102908000001be000800be000bf70700d053880086
:10291800e1538800f853800009548000a08020000b
:102928001005be00ee1090005e1090000080500070
:10293800cf80de0055f807000001be000a00be0087
:10294800aaf807000200200003002400bef70700d1
:102958000001be000800be00f7f60700f05388002b
:10296800015488004140800000042000008060007d
:102978000000e0000300320001a520000040eb0049
:10298800cefa070041408000000820000080600067
:102998000000e0000300320001a6200010c0b300d0
:1029a800c6fa0700d04080000000e800d040880048
:1029b800d1408000803e2000808f5000ce003a0039
:1029c8001a28ef0070002000f30507000000eb0054
:1029d80030079800230037003e0090004400dd00d7
:1029e800e4004000c0a42000008040001000be00a9
:1029f800000178003e0090004400dd00e80040003f
:102a0800c0a42000008040001000be000000780034
:102a180000005100800078003e0090004401dd0075
:102a2800e0a4200000004100010878003e0090006a
:102a38004400dd00e4004000c0a420000080400005
:102a48001000be003e019000c411dd0042a5200028
:102a5800028141000089be003e0090000000e800ad
:102a6800300798003e009000e10f5000daff340074
:102a7800605380000000e000110032003040800008
:102a8800610060000000e0000d003a008000eb00eb
:102a98000000eb00de0107008000eb0010002000c2
:102aa800db0107000000eb00870107001000200091
:102ab80085010700304080000000a00030408800f9
:102ac80010002000200798000000eb003007980055
:102ad800180037003e0090004400dd00ec00400084
:102ae800c0a42000008040001000be000001780053
:102af8003e0090004400dd00e4004000c0a4200037
:102b0800008040001000be00000078000000510066
:102b180000f0a7000000ea00e10f500002003400b6
:102b28000000eb00200798003e0090000000e8003d
:102b3800300798003e009000e10f5000e5ff340098
:102b48006053800061006000004078000004e000ed
:102b580015003200c2528000d352800070538000aa
:102b6800815380000000510081805900c0528800c4
:102b7800d152880042538000535380007053800024
:102b88008153800002004000838048004053880041
:102b98005153880061538000e0ff2f0000806000df
:102ba800605388002d003700605380006200600089
:102bb8000000e000180032002e0090000000e00045
:102bc80026003200c2528000d35280009053800009
:102bd800a15380000200400083804800c052880052
:102be800d152880042538000535380009053800094
:102bf800a1538000020040008380480040538800b1
:102c08005153880061538000d0ff2f00008060007e
:102c180060538800110037002e0090000000e0008b
:102c28000e0032008000eb000000eb007801070086
:102c38008000eb0010002000750107000000eb0089
:102c48004a010700100020004801070031408000b9
:102c5800e0ff2f0000806000304088004040800086
:102c680061006000004078000004e00003003200ca
:102c780001a520000040eb0010fa0700404080004a
:102c8800620060000000e0000300320001a620009e
:102c980010c0b30009fa07004040800064006000db
:102ca8000000e0000400320060a7200080007800e7
:102cb80020c0b30001fa07004040800068006000af
:102cc8000000e00004003200a0a720008000780087
:102cd80030c0b300f9f90700404080007000600080
:102ce8000000e00004003200e0a720008000780027
:102cf80040c0b300f1f907008500a9000080fa0080
:102d08004f05be004f04be004f03be004f02be0079
:102d18004f01be004f00be003600f900004006001b
:102d28000200fa00b0fd2000910424000040880051
:102d3800114088000428ef000080eb0060528800f2
:102d480010002000e05288006000b800b0538800ee
:102d5800c15388006000b800d0538800e153880050
:102d68000040800011408000020020000300240081
:102d7800b5f60700f0538800015488000040800031
:102d880011408000c2f528002308240097f70700a7
:102d98000200200043332400abf60700a280200085
:102da8002001980031019800a0802000b000900018
:102db800200090000200200003112400a2f6070062
:102dc800a28020000089be000000eb00000f780000
:102dd800250037001e007800c400dd00c0a42000d4
:102de8000080400010007800e10f40000a003a001f
:102df8001e0078000602070060001000e08018003e
:102e08001e017800c411dd0042a5200002814100a6
:102e18000089be00070037001e007800fc0107008b
:102e28001e017800c411dd0042a520000281410086
:102e38000089be001e0078004400dd00e800400064
:102e4800c0a42000008040001000be009e01780051
:102e580063814100c211dd0062a7200002814100a8
:102e68000089be001e0fe8001e007800e10f500028
:102e7800d8ff340013e1a9001221a90013a1a8006a
:102e8800900880000040a1000050a1009008880030
:102e980012c1a9000a21ef00f0c3290070088800b8
:102ea8008500a9009500a80013e1a8000080fa0099
:102eb800000006000000fa00e5e2a900c042a900ef
:102ec800d3a2a900d382a900cda2a900d322a90028
:102ed800cdc2a900c1c2a900e442a900c062a900ec
:102ee800c082a900d362a900d342a900d302a900d5
:102ef800c1e2a900c0a2a90011e1a9001021a900fe
:102f0800800880000040a1000050a10080088800cf
:102f18000621ef00f07f20006008880011e1a8007a
:102f2800200c80000000a1000010a1000020a100da
:102f3800200c88008461a9008021ef00200c80000b
:102f48000000a1000010a0000020a000200c8800b4
:102f5800c2a2a900500c80000000a1000010a1002e
:102f68000020a100500c88008a61a9008621ef008a
:102f7800500c80000000a1000010a0000020a0005c
:102f8800500c8800c3e2a900800c80000000a1005a
:102f98000010a1000020a100800c88009061a90009
:102fa8008c21ef00800c80000000a1000010a00020
:102fb8000020a000800c8800d502a900b00c800079
:102fc8000000a1000010a1000020a100b00c8800a2
:102fd8009661a9009221ef00b00c80000000a100ca
:102fe8000010a0000020a000b00c8800d542a90065
:102ff800e00c80000000a1000010a1000020a1004a
:10300800e00c88009c61a9009821ef00e00c80008a
:103018000000a1000010a0000020a000e00c880023
:10302800d562a900100d80000000a1000010a100c9
:103038000020a100100d8800a261a9009e21ef00c8
:10304800100d80000000a1000010a0000020a000ca
:10305800100d8800c282a900400d80000000a10068
:103068000010a1000020a100400d8800a861a9005f
:10307800a421ef00400d80000000a1000010a00076
:103088000020a000400d8800c262a900700d8000d9
:103098000000a1000010a1000020a100700d880010
:1030a800ae61a900aa21ef00700d80000000a10008
:1030b8000010a0000020a000700d8800e642a900c2
:1030c8000080fa00000006000200fa00000f7800f5
:1030d8001e007800e30f500018003200e30f500084
:1030e80007003c00e10f500010003200e10f5000d3
:1030f80010003c000000e0000a0032001900370010
:10310800e50f500011003200e50f50000d003500aa
:10311800e60f50000f003200e70f50000f0032009a
:1031280010003700c242a8000e003700e7e2a800ee
:103138000c003700d582a8000a003700d5a2a800e5
:1031480008003700d522a80006003700cfa2a80043
:1031580004003700c3c2a80002003700cfc2a8008d
:10316800000000000080fa00000006000200fa00db
:10317800000f78001e007800e30f5000180032009e
:10318800e30f500007003c00e10f50001000320030
:10319800e10f500010003c000000e0000a0032007f
:1031a80019003700e50f500011003200e50f5000fc
:1031b8000d003500e60f50000f003200e70f5000f9
:1031c8000f00320010003700c242a9000e0037007d
:1031d800e7e2a9000c003700d582a9000a003700f1
:1031e800d5a2a90008003700d522a900060037009b
:1031f800cfa2a90004003700c3c2a900020037000b
:10320800cfc2a900000000000080fa0000000600fc
:103218000800fa0020079800310798003e00900047
:103228000000e00006003d003e0090000000ea00bb
:10323800100798000000eb00000f78000700370027
:10324800610880003e009000008050000000e80007
:103258001007980010002000000f78009e009000d2
:10326800600880000000e800808f500004003600ed
:10327800600880000000e80010079800050037008b
:103288001e0090000000e00002003d000000eb007e
:10329800100798002e009000e30f50003c00320009
:1032a800e30f500007003c00e10f50001c00320003
:1032b800e10f500028003c000000e0000a00320046
:1032c80078003700e50f50004d003200e50f500040
:1032d8003d003500e60f500057003200e70f500060
:1032e800620032006f0037001e007800004078004e
:1032f800614060000080fb00610060004200dd006a
:1033080032178000b1ff2f008100610001007000ba
:10331800301788001e009000500d880061003700ab
:103328001e00780000407800614060000080fb00cb
:10333800610060004300dd001216800071ff2f005d
:103348008100610001007000101688001e009000c6
:10335800200d8800530037001e00780000407800d8
:10336800614060000080fb00610060004400dd00f7
:1033780012168000f1fe2f0081006100010070002c
:10338800101688001e009000f00c880045003700d9
:103398001e00780000407800614060000080fb005b
:1033a800610060004b00dd00a2168000f17f2f0055
:1033b8008100610001007000a01688001e009000c6
:1033c800c00c8800370037001e00780000407800e5
:1033d800614060000080fb00610060004a00dd0081
:1033e800a2168000f1bf2f0081006100010070006b
:1033f800a01688001e009000900c88002900370055
:103408001e00780000407800614060000080fb00ea
:10341800610060004800dd00a2168000f1ef2f0077
:103428008100610001007000a01688001e00900055
:10343800600c88001b0037001e00780000407800f0
:10344800614060000080fb004f00dd001216800024
:10345800f1ff27008100610001007000101688004c
:103468001e009000300c88000e0037001e00780007
:1034780000407800614060000080fb00610060004f
:103488004500dd0012168000f1fd2f00810061006b
:1034980001007000101688001e009000000c8800c3
:1034a800000000000080fa00000006000000fa009a
:1034b8003a28ef003c28ef00301780004700de0074
:1034c800614060000080fb00b04188003e28ef00aa
:1034d8004028ef00301780004900de00614060009e
:1034e8000080fb00c04188006120a8006160a8003e
:1034f8008660a9009660a8000080fa000000060017
:10350800809fbe000000fa008660a9003017800086
:103518004700de00614060000080fb00a041880099
:10352800a1418000b0418000808f50001600320019
:10353800a0418000b0418800301780004600de00be
:10354800614060008080fb00a0418000808f5000b7
:1035580007003200d0418000e14180006100400056
:10356800e0804800d0418800e1418800060037002b
:10357800d0418000e141800061005000e0805800a7
:10358800d0418800e1418800301780004900de0002
:10359800614060000080fb00a0418800a1418000dc
:1035a800c0418000808f500016003200a04180008a
:1035b800c0418800301780004800de00614060008c
:1035c8008080fb00a0418000808f500007003200ff
:1035d800f04180000142800061005000e080580006
:1035e800f04188000142880006003700f041800061
:1035f8000142800061004000e0804800f0418800fe
:10360800014288000080fa004f00be00004006001a
:103618000600fa00200798002e0090000000e00045
:1036280006003a009660a900d2418000e34180007c
:10363800028fbe009660a8000b0037002e00900095
:10364800e10f500006003a009660a900f2418000a0
:1036580003428000028fbe009660a8000200370077
:103668006000b800008fbe001e00be000080fa0097
:10367800000006000000fa00004180000080fa0007
:10368800000006000000fa00104180000080fa00e7
:10369800000006000000fa00804280000080fa0066
:1036a800000006000200fa006f06070010418000c3
:1036b8000000e0000e003400104180000000e90026
:1036c800104188002041800081852000e140780079
:1036d800014f78000000e800204188002141800067
:1036e800900f2000808f5000010034002428ef0044
:1036f800650607001e4078000080fa0000000600fa
:103708000200fa00004f78005b0607008042800044
:103718000000e0000e003400804280000000e90054
:1037280080428800504180001e4178002195200089
:10373800827078000000e800504188005141800004
:10374800900f2000808f5000010034002a28ef00dd
:103758005106070011118000002020000080600041
:103768000000e00001003a008580a8000080fa000f
:10377800000006000200fa0000000000104180006e
:10378800e10f5000fdff34003706070010418000ac
:103798000080e900104188002041800081852000d8
:1037a800e14078008180fb00010f78000000e8000c
:1037b8002041880021418000900f2000808f500018
:1037c800010034002428ef0020418000818520007a
:1037d800e14078008180fb00c808dd001e8f700082
:1037e8000000e8002041880021418000900f20005f
:1037f800808f5000010034002428ef0022060700c3
:103808001e0078000080fa00000006000200fa009e
:10381800000f78001806070080428000e10f500072
:103828001c003400804280000080e900804288004b
:10383800504180009e0078000141780021952000c9
:10384800827078000000e8005041880051418000f3
:10385800900f2000808f5000010034002a28ef00cc
:10386800504180009e007800c888de000141780041
:1038780021952000827078000000e80050418800ff
:1038880051418000900f2000808f500001003400cb
:103898002a28ef00000607001111800000202000f0
:1038a800008060000000e00001003a008580a80068
:1038b8000080fa00000006000a00fa0030079800ad
:1038c80041079800ec05070080428000e30f500094
:1038d8001c00340080428000640050008042880050
:1038e80066004700100798000000eb00000f780002
:1038f800110037001e0078009e00900000804000f4
:103908009040780041479800504180002195200060
:103918004e419000827078000000e8005041880015
:1039280051418000900f2000808f5000010034002a
:103938002a28ef001e0fe8001e007800e30f500051
:10394800ecff3400d405070011118000002020008e
:10395800008060000000e00001003a008580a800b7
:103968000080fa00000006003600f800809fbe00c4
:10397800829fbe00849fbe00869fbe003400f80070
:1039880000002000a00188000000fa008580a9003e
:103998000f003700404180002195200061407800e9
:1039a8008a050700404180000000e8004041880087
:1039b80041418000900f2000808f500001003400aa
:1039c8002828ef00804280000000e800804288003c
:1039d80081428000900f2000808f500003003c003f
:1039e800970507000000e000eaff3a000080fa00af
:1039f8003400f9004f03be004f02be004f01be0065
:103a08004f00be003600f900004006003600f800fe
:103a1800809fbe00829fbe00849fbe00869fbe001e
:103a28003400f80000002000a00188000400fa001b
:103a38008560a90041003700101180006400600013
:103a48000000e0000300320030118000004f7800d1
:103a58003a00370011418000900f2000808f5000fd
:103a680036003c00104180000000e800104188004a
:103a780030118000004f780030418000818520009f
:103a88001e41780082707800304180000000e80014
:103a98003041880031418000a00f2000808f500005
:103aa80001003a002628ef001e4078004000070079
:103ab8001007980000418000e10f50000c00320010
:103ac800e10f500003003900e20f500011003200ee
:103ad8001a0037009e00900050022000808f50008e
:103ae80013003a001000200000418800130037003e
:103af8001e009000ec0f50000f003a00200020003c
:103b0800004188002228ef003041800020418800d1
:103b18000a0037001e009000ee0f500007003a0020
:103b280010002000004188002228ef000300370021
:103b380000000000010037000000000010118000a4
:103b4800610060000000e000bbff3a000080fa005e
:103b58003400f9004f03be004f02be004f01be0003
:103b68004f00be003600f900004006000000fa00d1
:103b78002028ef000220200000002000117e2400f1
:103b880073040700440507003f050700dee2a900ab
:103b9800e2e2a9001000200001002000020707004f
:103ba800e2e2a800004180000080fa000000060060
:103bb8000200fa00004f780060418000e30f5000d7
:103bc80036003200e30f500005003e00e10f5000c0
:103bd80012003200e10f500019003e0009003700c2
:103be800e50f500040003200e50f50003300390067
:103bf800e60f500045003200e70f50004f0032003a
:103c0800570037001e407800e24f500051003a003c
:103c180010002000604188005100370090c6b300b2
:103c28009e40780080cf500003003a00200020001a
:103c3800604188004a0037002c28ef004800370010
:103c480050c2b3009e40780080cf50000900320077
:103c58001e407800ec4f5000060032001e407800ed
:103c6800f14f5000030032001e407800ee4f500024
:103c780008003a001e80fb007041880091c6b3001e
:103c88001ec0400030e8b7003000200060418800c6
:103c9800330037002c28ef00310037001e80fb006e
:103ca8009041880030c8bf001e40400030e8b7008f
:103cb8004000200060418800290037001e80fb007a
:103cc800c800dd00904180000080400090418800dd
:103cd80030c8bf001e40400030e8b7005000200048
:103ce800604188001e00370030c8bf009e40780041
:103cf80080cf500003003a00600020006041880037
:103d0800170037002c28ef0015003700914180007c
:103d180010c0b300e18f5000010034000040eb00f8
:103d28008100e900914188000004e0000b003200a6
:103d38007000200060418800090037002c28ef003f
:103d48001e407800e34f500005003a0070418000a3
:103d580004003700000000000100370000000000e8
:103d68000000eb000080fa00000006000000fa00e6
:103d7800c682a900c6a2a900c1a2a900c182a90041
:103d8800c002a900d8e2a900d8c2a900d8a2a900f7
:103d98000080fa00000006000400fa00000f780016
:103da800110798001e007800e30f5000360032001b
:103db800e30f500007003c00e10f50001a003200ea
:103dc800e10f500024003c000000e0000a0032002f
:103dd80068003700e50f500042003200e50f500040
:103de80035003500e60f50004a003200e70f50005a
:103df800540032005f0037001e0090000040780039
:103e0800614060000080fb00610060004400dd004c
:103e180052168000f1fe2f00810061000100700041
:103e280050168800530037001e00900000407800ac
:103e3800614060000080fb00610060004500dd001b
:103e480052168000f1fd2f00810061000100700012
:103e580050168800470037001e0090000040780088
:103e6800614060000080fb00610060004d00dd00e3
:103e780022168000f1ff2d00810061000100700012
:103e8800201688003b0037001e0090000040780094
:103e9800614060000080fb00610060004c00dd00b4
:103ea80022168000f1ff2e008100610001007000e1
:103eb800201688002f0037001e0090000040780070
:103ec800614060000080fb006100600022168000f5
:103ed800e1ff2f00810061000100700020168800ba
:103ee800240037001e009000004078006140600008
:103ef8000080fb00610060004700dd00e2168000e2
:103f0800f1f72f008100610001007000e0168800c1
:103f1800180037001e0090000040780061406000e3
:103f28000080fb00610060004600dd00e2168000b2
:103f3800f1fb2f008100610001007000e01688008d
:103f48000c0037001e0090000040780061406000bf
:103f58000080fb00610060004500dd00e216800083
:103f6800f1fd2f008100610001007000e01688005b
:103f7800000000000080fa00000006000200fa00bd
:103f8800000f78001e0078000000e0008000350077
:103f9800f00f20009e007800808f50007c003c00cd
:103fa8001e007800004078006140600061406000b9
:103fb800614060000080fb00610060004400dd009b
:103fc80052168000f1fe2f00810061000100700090
:103fd800501688001e0078000080d100000f78007d
:103fe8001e00780000407800614060006140600079
:103ff800614060000080fb00610060004500dd005a
:1040080052168000f1fd2f00810061000100700050
:10401800501688001e0078000080d100000f78003c
:104028001e00780000407800614060006140600038
:10403800614060000080fb00610060004d00dd0011
:1040480022168000f1ff2d00810061000100700040
:10405800201688001e0078000080d100000f78002c
:104068001e007800004078006140600061406000f8
:10407800614060000080fb00610060004c00dd00d2
:1040880022168000f1ff2e008100610001007000ff
:10409800201688001e0078000080d100000f7800ec
:1040a8001e007800004078006140600061406000b8
:1040b800614060000080fb00610060002216800003
:1040c800e1ff2f00810061000100700020168800c8
:1040d8001e0078000080d100000f78001e007800d4
:1040e800004078006140600061406000614060000d
:1040f8000080fb00610060004700dd00e2168000e0
:10410800f1f72f008100610001007000e0168800bf
:104118001e0078000080d100000f78001e00780093
:1041280000407800614060006140600061406000cc
:104138000080fb00610060004600dd00e2168000a0
:10414800f1fb2f008100610001007000e01688007b
:104158001e0078000080d100000f78001e00780053
:10416800004078006140600061406000614060008c
:104178000080fb00610060004500dd00e216800061
:10418800f1fd2f008100610001007000e016880039
:104198000080fa00000006000200fa00000f780014
:1041a8001e007800e30f500044003200e30f500077
:1041b80007003c00e10f50001e003200e10f5000e4
:1041c8002d003c000000e0000a0032008e0037009d
:1041d800e50f500059003200e50f50004800350047
:1041e800e60f500066003200e70f500075003200fd
:1041f80085003700501680007000600000f0a700ae
:104208000000ea000000e9004f00de0000407800ee
:104218000080fb00610060004400dd005216800051
:10422800f1fe2f0081006100010070005016880027
:1042380075003700511680000002200000806000e1
:1042480000f0a7000000ea000000e9004f00de00cf
:10425800004078000080fb00610060004500dd0040
:1042680052168000f1fd2f008100610001007000ee
:1042780050168800640037002116800000002200d4
:104288000080600000f0a7000000ea000000e900dc
:104298004f00de00004078000080fb0061006000f5
:1042a8004d00dd0022168000f1ff2d008100610025
:1042b8000100700020168800530037002116800086
:1042c800000021000080600000f0a7000000ea0064
:1042d8000000e9004f00de00004078000080fb008d
:1042e800610060004c00dd0022168000f1ff2e0006
:1042f800810061000100700020168800420037002c
:10430800201680006100600000f0a7000000ea00ad
:104318000000e9004f00de00004078000080fb004c
:104328006100600022168000e1ff2f00810061001b
:10433800010070002016880033003700e116800065
:10434800000820000080600000f0a7000000ea00dc
:104358000000e9004f00de00004078000080fb000c
:10436800610060004700dd00e2168000f1f72f00d1
:104378008100610001007000e0168800220037000b
:10438800e1168000000420000080600000f0a70013
:104398000000ea000000e9004f00de00004078005d
:1043a8000080fb00610060004600dd00e21680002e
:1043b800f1fb2f008100610001007000e016880009
:1043c80011003700e1168000000220000080600024
:1043d80000f0a7000000ea000000e9004f00de003e
:1043e800004078000080fb00610060004500dd00af
:1043f800e2168000f1fd2f008100610001007000cd
:10440800e0168800000000000080fa0000000600a6
:104418000800fa00300798003e0090000000e8000d
:10442800104078000080fb00610f60003e009000a3
:104438000080e800104078000080fb006100600008
:10444800100798003e00900064004000104078007b
:104458000080fb00c800dd003e00900063004000c3
:10446800104078000080fb00008040002007980082
:104478001e007800e10f500014003a00ae009000d2
:104488000000eb0062fb07001e0090000000e00047
:1044980006003a002e0090000000ea008000780034
:1044a800100020005afb070003003700ae00900000
:1044b8001000200056fb07000000eb0002fb07007d
:1044c8001000200000fb0700040037000000eb008c
:1044d80026fb07001000200024fb07000080fa00dc
:1044e800000006000600fa00200798002e00900041
:1044f8000000e80042002000800078000e007800ec
:10450800a6f307001e00be0041f407000080fa0071
:10451800000006000600fa00200798002e00900010
:104528000000e80042002000800078000e007800bb
:104538009af307000040800011408000020020002c
:1045480043332400c0f007000002be001e00be0076
:104558000001be000400be00a4f107003ff40700fc
:104568000080fa00000006000a00fa0040079800e0
:104578004e0090000000e800420020008000780013
:104588000e00780085f307004e009000e50040001b
:10459800640047004200200080f307002e009000ce
:1045a800be0090001e02be000001be000400be0056
:1045b8003cf407000080fa00000006000800fa003a
:1045c800300798003e0090000000e8001040780096
:1045d8000080fb00610f60001e00780002f40700f5
:1045e800100798001e00900000407800404798008f
:1045f8001e0090004880de00004078005047980078
:1046080064004700000178002100200050c9b30071
:10461800dd0307000080fa00000006000e00fa0023
:10462800600798006e0090000000e80010407800d5
:104638000080fb0061006000300798003e00900099
:10464800f3fb070010079800210798000000eb0013
:10465800000f78000e0037001e00900080407800a0
:10466800680047001e004000014878001e009000c6
:10467800ae0090004809dd004800de00000071002f
:10468800c888de0010079800210798001e0fe80070
:104698001e007800e30f5000efff34006800470069
:1046a800000178004100200060c9b300b60307008c
:1046b8000080fa00000006000800fa0030079800a1
:1046c8003e0090000000e800104078000080fb00e9
:1046d800610f60001e007800fd02070010079800b7
:1046e8001e00900000407800404798001e0090008f
:1046f8004880de000040780050479800640047007a
:104708000001780021002000e0c9b3009e030700e3
:104718000080fa00000006000200fa0007f5070012
:1047280000407800004f78000e017800110020004a
:1047380090cab300940307000080fa000000060046
:104748000000fa00410307000080fa00000006009c
:104758000200fa0042030700000f78001e007800ec
:104768000000e0005a0032001e0078001040780077
:104778000080fb0021032000810f5000460032001a
:1047880021032000810f500012003c00f50f50005b
:104798002f003200f50f500005003c00ea0f5000d2
:1047a80023003200f40f5000260032004800370082
:1047b80081022000810f5000280032009102200061
:1047c800810f50002a003200fe0f50002a003200ec
:1047d8003f003700c1032000810f5000360032002f
:1047e800c1032000810f500007003c003103200066
:1047f800810f50002200320041032000810f500039
:10480800220032003200370041062000810f50009c
:1048180024003200f10f2000810f50002b003200dd
:1048280061042000810f5000260032002800370064
:104838001e00e800104078000080fb00cffd070054
:10484800230037001e007800f1fe07002000370023
:104858001e00780059ff07001d0037001e00e80001
:10486800104078000080fb00a5f40700180037000e
:10487800a9ff0700160037001e0078008eff07000a
:104888001e00780017ff0700110037001e0078008f
:1048980020ff07000e0037001e00780032ff0700d7
:1048a8000b0037001e00e800104078000080fb0075
:1048b8002ef307000600370010002000a0428800f1
:1048c800030037002ff30700010037000000000045
:1048d8000080fa00000006000200fa00000f7800cd
:1048e800f6f50700800020003e0207009e007800d1
:1048f800f07f20000088b900000078008000780070
:104908002000200042fa070020002000eef90700ee
:1049180080bb20002702070010002000310207009a
:104928008000eb002000200039fa0700200020005a
:104938000efa07000080fa00000006005000fa0096
:10494800889fbe00f4004700029e28000900090065
:10495800b21878008102200081004700429f280099
:1049680009000900b2187800c1032000810047003f
:1049780082a0280009000900b218780010c0b3000e
:104988006047980066004700000178001100200089
:10499800c0cbb300fc020700faf207004000200079
:1049a80010020700a7f507000080eb0040079800f9
:1049b8001f00370002002000031f24006000b80019
:1049c80038f307002000200006020700200020001e
:1049d8004bf4070002002000032724006000b80001
:1049e80030f3070020002000fe01070053f4070001
:1049f8004007980068004700000178002100200067
:104a080090cab300e00207004e009000e10f40009a
:104a18000500320002002000632924000000200065
:104a280001122c001ff3070020002000ed010700f1
:104a38004e009000e10f4000deff32000040eb0026
:104a4800604798000000eb00000f78005f00370017
:104a58001e00780000004000000047006a00400087
:104a68008080eb0001087800ce0090001e007800de
:104a78000088de0061006000004078000004e0006b
:104a8800510032004a0037001e0078004200dd0065
:104a98000080e8000000470020089000cf80de007a
:104aa800faef07000004be001e0078004200dd0097
:104ab8000000470020089000cf80de00f3ef0700d9
:104ac8000801be00f7f2070020002000c50107001a
:104ad800100020000af407001e0078004200dd00e4
:104ae8000080e8000000470020089000cf80de002a
:104af800e6ef07000004be001e0078004200dd005b
:104b0800000047002008900076005000cf80de00ab
:104b1800deef07000801be00e2f2070020002000d7
:104b2800b001070005f40700800078001e00780037
:104b380000004000000047006a00400001087800bb
:104b48001e00780000004000000047005000900060
:104b5800e50f5000060034001e00780000004000f9
:104b6800000047006a0040008080eb0001087800e0
:104b78001e00780000004000000047005000900030
:104b8800e10f400002003a0020c0b30060479800df
:104b9800ea0047001e007800000040000080400046
:104ba800000178002100200090cab30076020700b7
:104bb8001e007800000040000000470050009000f0
:104bc800e10f4000b0ff32001e0fe8001e00780021
:104bd800e40f50009eff340002002000c328240088
:104be80000002000a1322c00aef2070020002000b7
:104bf8007c0107000200200003222400000020009e
:104c0800a1322c00a7f20700200020007501070040
:104c18000000eb0010079800360037000000eb009a
:104c280020079800030037002e0090000000e800dd
:104c3800200798002e009000e40f50000a003c0066
:104c48002e0090000000400000004700d0009000b7
:104c58001e0090000000400000004700601890000f
:104c6800808f5000f0ff3a002e009000e40f5000b3
:104c78001b003c002e009000000040000000470090
:104c88006a0040008080eb00010878002e00900048
:104c98004200dd000080e80000004700401090005e
:104ca800cf80de0079ef07000004be002e009000e0
:104cb8004200dd000000470040109000cf80de0079
:104cc80072ef07000801be0076f2070020002000fe
:104cd800440107000080eb00fffe070002003700d8
:104ce80010002000fcfe07001e0090000000e800f5
:104cf800100798001e009000e90f5000c7ff34000d
:104d0800e2f4070002002000031f24006000b8003e
:104d180064f2070020002000320107006011b8008b
:104d28006000b8005ff20700200020002d01070096
:104d3800660047000001780011002000c0cbb300d6
:104d4800110207004f04be000080fa0000000600b0
:104d58000a00fa00889fbe008a1f78002007980082
:104d6800310798004207980018c0b30002002000dd
:104d7800833124002e009000be00900005ef07004c
:104d88000000e00001003c000044eb000804e000e3
:104d98008a00320018c0b3000268290083b12400d9
:104da8002e009000be009000f8ee07000000e00022
:104db800010035000044eb000804e0007f003200e9
:104dc80021e2a900ce009000011188000200200015
:104dd800031824002e009000be00900083ef070007
:104de8000001be000068290081c1240096ee07007a
:104df8000200200003f82300ceed0700008fbe005c
:104e08002062a9001e00be0005ef07000000780020
:104e180040118800401180008000eb001eef070061
:104e28000001be001e00be00c2ed070018c0b3009e
:104e38000200200003f02300d6ee07000000e00087
:104e480001003c000044eb000804e00003003200cd
:104e5800401180000000e8004011880040118000e7
:104e68000000e8008000eb000bef070002002000c4
:104e7800031824005def07000001be000068290048
:104e880081c1240070ee0700008fbe002e01900043
:104e9800be0190001e00be00a6ed070018c0b300ba
:104ea8006011b800b9ee07000000e000010035000d
:104eb8000044eb000804e000070032002e019000d7
:104ec800be0190001e00be009aed07000004be005f
:104ed80009f0a200050037002e019000be019000e5
:104ee8001e00be0093ed07000004be000200200073
:104ef800832424002e009000be00900052ee07008c
:104f08001ac0b3000001be000800be00a1ee0700f1
:104f18000000e00001003c000045eb000a04e0004e
:104f2800240032002062a8000200200003082400a8
:104f38002e009000be0090002cef07000001be007c
:104f48000068290081c124003fee0700020020000c
:104f580003f8230077ed0700008fbe001e00be0097
:104f6800afee070000007800401188004011800073
:104f78008000eb00c8ee07000001be001e00be0066
:104f88006ced070018c0b3000200200003f02300f6
:104f980080ee07000000e00001003c000044eb0048
:104fa8000804e00003003200401180000000e8001f
:104fb8004011880021e2a8002342a8004f0578008c
:104fc8004f04be000080fa00000006000200fa004c
:104fd800004f780000000000111180000020200020
:104fe800008060000000e000fbff3a001e80fb002c
:104ff800201188000080fa00000006000000fa0076
:105008000000000010118000610060000000e00056
:10501800fcff320030118000004078000080fa0068
:10502800000006000000fa0010118000004078001f
:10503800614060000080fb000080fa00000006006c
:105048000000fa001111800000202000008060009c
:1050580000f0a7000000ea000000e9004f00de00b1
:105068000080fa00000006000000fa009560a90020
:105078000080fa00000006000000fa009580a900f0
:105088000080fa00000006000000fa009560a80001
:105098000080fa00000006000000fa009580a800d1
:1050a8000080fa00000006000e00fa001c0037001d
:1050b8002e409000004f980010002000000f78004c
:1050c8000f0037002e009000be009000804078004e
:1050d800680047001e004000014878002e0090003c
:1050e800be0090004809dd004800de0000007100a5
:1050f800c888de0020079800310798001e0fe800d6
:105108001e007800e40f5000eeff340068004700ee
:10511800000178005100200040ceb3001a010700ba
:105128000e80e800c2f007000000e000e0ff3a004f
:105138000080fa00000006000200fa000000eb0000
:10514800000f7800a80107000001be00204280007f
:1051580031428000800f5100818f590001003400d6
:105168001e00a00012f107000000e00001003a0054
:105178001e10a00009f107000000e00001003a003d
:105188001e20a000abf307000000e00001003a0079
:105198001e30a0001e0078000080fa000000060003
:1051a8000000fa004228ef00940107000080fa008e
:1051b800000006000200fa00000f78008a010700cc
:1051c8000001be001e007800cf80de000200400013
:1051d8008380480020428800314288000080fa001d
:1051e800000006000400fa001007980010002000d4
:1051f800000f780024003700104280000000e00013
:1052080010003a001bf90700e20f500007003a00af
:10521800100020001042880049fd070011002000fe
:105228000000eb00dcfa07000d0037000000eb007f
:10523800d9fb070020032000010020005a010700c5
:10524800070037000bf90700e20f50000200320098
:105258004228ef00020037003dfd070092ff0700db
:1052680010002000000f7800b3ff07009e00900098
:10527800810060001e009000808f500002003a00fc
:105288000000eb00000f78001e0078000000e0002e
:10529800d9ff3a000080fa00000006000000fa007a
:1052a8002143a90020c0b30024e3b70041198000be
:1052b80000fe2f00008060000000a0004019880058
:1052c80021e3a80028e3a9000080fa0000000600f6
:1052d8000400fa00100798001e009000e30f500029
:1052e80024003200e30f500007003c00e10f50009b
:1052f80014003200e10f500018003c000000e000ec
:105308000a00320039003700e50f5000250032004e
:10531800e50f50001d003500e60f50002700320051
:10532800e70f50002b003200300037004119800091
:1053380000fe2f0000806000f000b30040198800d4
:105348002a0037004119800000fe2f00008060000d
:10535800e000b3004019880024003700411980009c
:1053680000fe2f0000806000d000b30040198800c4
:105378001e0037004119800000fe2f0000806000e9
:10538800c000b30040198800180037004119800098
:1053980000fe2f0000806000b000b30040198800b4
:1053a800120037004119800000fe2f0000806000c5
:1053b800a000b300401988000c0037004119800094
:1053c80000fe2f00008060009000b30040198800a4
:1053d800060037004119800000fe2f0000806000a1
:1053e8000030a00040198800000000002023a80019
:1053f800c0002000010020008b0107002023a90025
:105408000000000000198000610060000000e0005a
:10541800fcff3200001880007500b9000000780019
:105428004400de00000f7800f03f20009e00780066
:10543800808f500002003400f03f2000000f7800f9
:105448001e0078000080fa00000006000000fa0044
:105458004c28ef004e28ef000080fa0000000600fc
:105468000400fa000000eb001007980085f8070018
:105478000000e0002b0034008af80700004f780095
:105488001e80fb00fb0f500007003200510a20006d
:10549800810f500007003a0040ba2000100798001a
:1054a8004c28ef001a0037001000200070428800d6
:1054b8001700370070428000e10f50000d003a00dd
:1054c8004e28ef001e80fb00e10f50000300320061
:1054d800e20f5000040032000600370050cab30043
:1054e800004f780003003700b0c1b300004f7800c8
:1054f800000000006042800041ba20001e41780090
:10550800827078000000e800604288000000000017
:105518006142800000022000808f500001003a00a4
:105528004c28ef001e0090000080fa0000000600e2
:105538000200fa00004f78001e80fb00fb0f5000ad
:1055480008003200510a2000810f50000a003a007a
:10555800b0c1b3006af8070010c0b30068f80700cc
:1055680007003700b0c1b30065f8070020c0b300da
:1055780063f80700020037001e40780060f8070053
:105588000080fa00000006000800fa002047980092
:1055980021079800320798002e409000e4ff07008a
:1055a8000000eb00000f7800060037001e007800ae
:1055b800be0090000080400010407800dcff07002b
:1055c8001e0fe8002e0090009e007800808f50008b
:1055d800f6ff350050cab30049f807000080fa000a
:1055e800000006000000fa00de02a800de22a80083
:1055f800e422a800e402a800e582a800e5c2a80009
:10560800c0e2a800c0c2a8000080fa00000006009e
:105618000400fa00100798001e009000e30f5000e5
:1056280024003200e30f500007003c00e10f500057
:1056380014003200e10f500018003c000000e000a8
:105648000a00320039003700e50f5000250032000b
:10565800e50f50001d003500e60f5000270032000e
:10566800e70f50002b003200300037000017800091
:1056780000407800614060000080fb00000f780067
:105688002a003700001780000000d1006140600048
:105698000080fb00000f78002400370030178000de
:1056a8000000d100614060000080fb00000f78001e
:1056b8001e0037003017800000407800614060000d
:1056c8000080fb00000f78001800370030178000ba
:1056d8004c00de00614060000080fb00000f780095
:1056e80012003700301780004e00de006140600075
:1056f8000080fb00000f78000c00370010168000b7
:105708004700de00614060000080fb00000f780069
:1057180006003700101680004600de006140600079
:105728000080fb00000f7800000000001e007800d9
:105738000080fa00000006000000fa00860007005a
:105748000080eb0050198800f0ff200060198800e5
:10575800f00f2f00601b880005e1a9000021ef0071
:10576800f0c32900100888000421a90005a1a80099
:10577800200880000040a1000050a10020088800f7
:1057880004c1a9008460a9009460a800c3fe0700b2
:1057980094ff070075f90700c6f5070043f70700ef
:1057a8000080fa00000006000400fa00008fbe0026
:1057b8000700370000c42900010020009a000700f4
:1057c8000081eb008081eb001e0f41005e974900cd
:1057d8001e00be00e00f5000e08f5800f5ff3c00af
:1057e8000080fa00000006000000fa004042800035
:1057f800514280000080fa00000006000000fa0014
:105808004828ef004a28ef000021ef0005e1a80032
:105818000080fa00000006000000fa0005e1a90077
:105828000080fa0000000600809fbe000000fa0019
:105838008460a9004042800051428000610040001d
:10584800e080480040428800514288000080fa0009
:085858004f00be0000400600f5
:020000040000fa
:1058600058080000f40100000000000020080000bb
:1058700014000000000000005008000002000000ba
:1058800002000000fa000000340800000e000000d2
:1058900000000000480800000400000000000000b4
:1058a000680b00003c000000020000000d00190021
:1058b000001300003d002300003100002f003b00da
:1058c000003700000b007200006600006c00420010
:1058d000005c00004e0050000044000048007400ce
:1058e0000027000033001b00002100001d003900cc
:1058f0000005000011000900001700004c0a00001c
:105900001c01000000000000000800002000000052
:1059100000000000a40b00002000000000000000b8
:105920004c080000040000000000000052080000c5
:105930000200000000000000420800000600000015
:1059400000000000540800000200000000000000f9
:1059500056080000020000000000000000000000e7
:020000040000fa
:105960000000fa00e0012000303a8800203a800070
:105970000060a1000070a100203a8800213a800058
:1059800000fe2f0000806000203a880032002000d6
:1059900080072000a109200033742000804978008e
:1059a00081497800824978001200200060042000bc
:1059b0007105200023742000804978008149780017
:1059c0008249780000000000113a800000002700a2
:1059d0008080600000002300808f5000faff3a00b2
:1059e0000080fa00000006000400fa00000f7800b2
:1059f0001107980052ff0700fcfe07005df8070042
:105a0000e9fd0700c8f407000100370000000000ae
:105a10000000eb00f5fd0700a04280000000e00060
:105a2000faff3200c7fb07005428ef00f8ff3700e9
:020000040000fa
:105a3000f03fb1000180b10006003500ee0309001f
:105a400000000000403fb1000180b100fbff3d00bd
:105a50001000b000203fb0000200350000800900b7
:085a6000000000000000060038
:020000040000fa
:0200000401f009
:04000c00f8ff0000f9
:020000040000fa
:0200000401f009
:040010007dff000070
:020000040000fa
:0200000401f009
:040014007fff00006a
:020000040000fa
:0200000401f009
